20180825123456005876IBK-IBG             TUAN KEMBANG BT 00000055600R03 11301000099330                            0660015527419        
20180825123456005876IBK-IBG             TUAN KEMBANG BT            R03 11301000099330      NO AMOUNT             0660015527419        
        123456005876IBK-IBG             TUAN KEMBANG BT 00000055600R03 11301000099330      NO DATE               0660015527419        
20180825      005876IBK-IBG             TUAN KEMBANG BT 00000055600R03 11301000099330      NO TELLER             0660015527419        
20180825123456      IBK-IBG             TUAN KEMBANG BT 00000055600R03 11301000099330      NO TRACE              0660015527419        
20180825123456005877IBK-IBG             TUAN KEMBANG BT 00000055600R03 11301000099330      NO USER ID            0660015527419        
20180825123456005876IBK-IBG             TUAN KEMBANG BT 00000055600R00 11301000099330      NO REJECT DESC        0660015527419        
