X00012018051621412900159831UTest                                                                                                                        
D03455420180516000000000200.00CR                    834743882                0125289475               MOHD ALIF BIN ABDUL WAHAB       005813            
D10264620180516000000000300.00CR                    1440731238               0172365379               FOO HUI PING                    025219            
D15978320180516000000000200.00CR                    1141511418               0124712371               YEAP TAN TIAN                   044405            
D17652420180516000000000250.00CR                    1872765019               0122699060               DENESH A/L VEJAYAN              051904            
D19781720180516000000000610.50CR                    800319675                0122014345               SURESH KUMAR A/L T A S MENON    055821            
D23454220180516000000000390.55CR                    2228551418               0178844850               ARIZAN BIN ARIFIN               064758            
D25428020180516000000000050.00CR                    1241117009               0129550611               NORAZLIZA BT CHE MAT            070913            
D25482920180516000000000300.00CR                    1876150606               0123902667               PAO YEE LING @ ELAINE PAO       070942            
D25768220180516000000000156.90CR                    1279310104               0126199368               KOK LING SIANG                  071226            
D26027120180516000000000085.00CR                    1970436638               0128388081               PAO YEE LING @ ELAINE PAO       071457            
TY00000010000000041058.0000000242.005287                                                                                                                
